:020000040800F2
:100000000004002001020008C1030008C103000829
:10001000C1030008C1030008C1030008C1030008B0
:10002000C1030008C1030008C1030008213B000808
:10003000C1030008C1030008C1030008B17B000828
:10004000C1030008C1030008C1030008C103000880
:10005000C1030008C1030008C1030008C103000870
:10006000C1030008C1030008C10300082173000890
:10007000917300080174000871740008E1740008AD
:1000800051750008C1750008C1030008C1030008CC
:10009000C1030008C1030008C1030008C103000830
:1000A000C1030008C1030008C1030008C103000820
:1000B000C1030008C1030008C1030008C103000810
:1000C000C1030008C1030008C1030008C103000800
:1000D000C1030008C1030008C1030008C1030008F0
:1000E000C1030008C1030008C1030008C1030008E0
:1000F000C1030008C1030008C1030008C1030008D0
:10010000C1030008819A0008C1030008C103000868
:10011000C103000861AE0008C1030008C103000864
:1001200031760008A1760008117700088177000871
:10013000F1770008C1030008C1030008C1030008EB
:10014000C1030008C1030008C1030008C18A0008F8
:1001500061780008D1780008C1030008C1030008D5
:10016000C1030008C1030008C1030008C10300085F
:10017000C1030008C1030008C1030008C10300084F
:10018000C1030008C1030008C1030008C10300083F
:10019000C1030008C1030008C1030008C10300082F
:1001A000000000000000000000000000000000004F
:1001B000000000000000000000000000000000003F
:1001C000000000000000000000000000000000002F
:1001D000000000000000000000000000000000001F
:1001E000000000000000000000000000000000000F
:1001F00000000000000000000000000000000000FF
:1002000072B6264880F30988022080F31488BFF371
:100210006F8F00F07DF80AF09BFE21482149224AA9
:1002200091423CBF41F8040BFFF7FABF1F491B4A3C
:1002300091423CBF41F8040BFFF7FABF1C491D4A2D
:100240001D4B9A423EBF51F8040B42F8040BFFF7D6
:10025000F8BF002019491A4A91423CBF41F8040BEB
:10026000FFF7FABF00F074F800F062F8154C164D75
:10027000AC4280F2058054F8041B8847FFF7F8BFB2
:1002800015F016F9114C124DAC4280F2058054F86D
:10029000041B8847FFF7F8BF00F052B800080020A1
:1002A0005555555500000020000400200004002092
:1002B00080730108000800200409002008090020BC
:1002C0008C3A00200002000800020008000200082A
:1002D0000002000800000000000000000000000014
:1002E0002DE9F04FC1F80CD0C3689D46BDE8F08FF2
:1002F000002383F311882846A047002001F038F836
:1003000000F0CEFD00DFFEE700000000000000006E
:10031000704700BFAFF30080AFF30080AFF3008001
:10032000704700BFAFF30080AFF30080AFF30080F1
:10033000704700BFAFF30080AFF30080AFF30080E1
:10034000FEE700BFAFF30080AFF30080AFF30080A3
:1003500084B0164B0393039B1B680293039B5B685B
:10036000019309E0029B1A68019B1A60019B043308
:100370000193029B04330293039B9A68019B9A4268
:10038000F0D805E0019B00221A60019B0433019321
:10039000039BDA68019B9A42F4D8039B10330393C2
:1003A000039A034B9A42D6D304B07047F05F01081A
:1003B00070600108AFF30080AFF30080AFF30080FE
:1003C000FEE700BFAFF30080AFF30080AFF3008023
:1003D00084B00190019B03F0070303930A4BDB6891
:1003E0000293029A4FF6FF0313400293039B1A02F3
:1003F000029B134343F0BF6343F400330293024B69
:10040000029ADA6004B0704700ED00E0AFF30080BC
:1004100082B0034600918DF807309DF90730002B1C
:100420000CDA0C499DF8073003F00F03043B009AE7
:10043000D2B21201D2B20B441A7609E006499DF9F4
:100440000730009AD2B21201D2B20B4483F80023D3
:1004500002B0704700ED00E000E100E0AFF3008083
:1004600008B50E4B00229A600320FFF7B1FF0C4B3A
:100470000B4AD26842F08072DA600A4B094A12686D
:1004800042F001021A606FF004000121FFF7C0FF83
:100490006FF001000221FFF7BBFF08BD00ED00E097
:1004A000F0ED00E0001000E0AFF30080AFF300805B
:1004B00082B0EFF311830093009B0193019B1846D8
:1004C00002B07047AFF30080AFF30080AFF300805D
:1004D00082B00190019B002B14BF00230123DBB2EB
:1004E000184602B0704700BFAFF30080AFF3008042
:1004F00082B0EFF305830193019BC3F30803002B44
:100500000CBF00230123DBB2184602B0704700BFC6
:1005100082B020230193019B83F3118802B07047BE
:1005200082B000230193019B83F3118802B07047CE
:1005300008B5FFF7EDFF08BDAFF30080AFF3008013
:1005400008B5FFF7EDFF08BDAFF30080AFF3008003
:1005500072B67047AFF30080AFF30080AFF3008056
:1005600082B000230193019B83F3118862B602B02D
:10057000704700BFAFF30080AFF30080AFF300809F
:10058000704700BFAFF30080AFF30080AFF300808F
:10059000014B5B6818467047001000E0AFF3008025
:1005A00008B5FFF7DDFF08BDAFF30080AFF30080B3
:1005B00008B5FFF7ADFF08BDAFF30080AFF30080D3
:1005C00008B5FFF7ADFF08BDAFF30080AFF30080C3
:1005D00008B5FFF7ADFF08BDAFF30080AFF30080B3
:1005E00008B5FFF7ADFF08BDAFF30080AFF30080A3
:1005F00000B583B0184B9B6A5A1C174B9A62164B76
:10060000DA69164B9A4224D0134BDB699A68013A97
:100610009A6019E0104BDB690193019BDB68009342
:10062000019B0022DA60019B1B680C4A5A60019B07
:100630001A68094BDA61FFF7D3FF019B1A69009B27
:1006400010469847FFF7C4FF034BDB699B68002BFC
:10065000E0D003B05DF804FB401000205C100020E7
:1006600082B00190024B9B69019A9A6102B0704777
:1006700040100020AFF30080AFF30080AFF30080A4
:1006800082B001900091019B009A9A6102B070477C
:1006900000B583B00190FFF773FFFCE7AFF3008074
:1006A00000B585B0FFF7DCFE00F06AFA00F058F9FB
:1006B00000F0D6FF02F0BCFF03F01AF80F4840210B
:1006C00000F026FD02460E4B9A610D4B9B690122FC
:1006D0001A77FFF765FF0B48FFF7C2FF002300936F
:1006E0000948D8210122094B00F07AFD03900398B4
:1006F0000749FFF7C5FF05B05DF804FB7010002047
:100700004010002080600108B81000209106000809
:1007100070600108AFF30080AFF30080AFF300809A
:1007200000B583B00190FFF713FF024B019ADA6224
:10073000FEE700BF40100020AFF30080AFF3008061
:1007400086B00190019B03F00103002B22D000230F
:1007500005933A4B1B68049305E0059B0133059311
:10076000049B1B680493049A344B9A42F5D1334B93
:100770005B68049305E0059B013B0593049B5B6864
:100780000493049A2D4B9A42F5D1059B002B01D07E
:10079000012350E0019B03F00203002B22D0002331
:1007A0000593264BDB69039305E0059B0133059315
:1007B000039B1B680393039A214B9A42F5D11F4B6D
:1007C0001B6A039305E0059B013B0593039B5B6854
:1007D0000393039A1A4B9A42F5D1059B002B01D043
:1007E000012328E0019B03F00403002B22D0002307
:1007F0000593124B1B69029305E0059B013305939A
:10080000029B1B690293029A0C4B9A42F5D10B4B47
:100810005B69029305E0059B013B0593029B5B69C5
:100820000293029A054B9A42F5D1059B002B01D009
:10083000012300E00023184606B070474010002056
:100840005C100020AFF30080AFF30080AFF30080B6
:1008500008B5074B9B69DB7F002B05D0044B9B69D8
:10086000DA7F013AD2B2DA77FFF7C2FE08BD00BFE5
:1008700040100020AFF30080AFF30080AFF30080A2
:1008800000B583B0FFF714FE01900198FFF720FE3A
:100890000346002B09D0FFF72BFE0346002B02D0A6
:1008A000FFF796FE01E0FFF783FE019B184603B0B9
:1008B0005DF804FBAFF30080AFF30080AFF300807E
:1008C00000B583B001900198FFF702FE0346002BAC
:1008D0000BD0FFF70DFE0346002B02D0FFF780FE82
:1008E00003E000F04DFAFFF76BFE03B05DF804FB88
:1008F00084B0039002910192039A029BD21A01994B
:10090000029BCB1A9A422CBF00230123DBB218466C
:1009100004B07047AFF30080AFF30080AFF3008006
:1009200000B585B00190FFF733FE0390039A019B59
:100930001344029300BFFFF72BFE034618460399AA
:10094000029AFFF7D5FF0346002BF4D105B05DF8FE
:1009500004FB00BFAFF30080AFF30080AFF3008073
:10096000064B074ADA61054B054A1A62034B4FF002
:10097000FF325A62014B00229A62704740100020F9
:100980005C100020AFF30080AFF30080AFF3008075
:1009900086B00390029101920093039B009A1A6122
:1009A000039B019ADA60029B0493174BDB69059362
:1009B00007E0059B9B68049AD31A0493059B1B6868
:1009C0000593059B9A68049B9A42F2D3039B059A70
:1009D0001A60039B1B685A68039B5A60039B5B6801
:1009E000039A1A60059B039A5A60039B049A9A60C3
:1009F000059B9A68049BD21A059B9A60024B4FF0A4
:100A0000FF325A6206B0704740100020AFF30080FA
:100A100082B00190019B1B68019A12689168019A4B
:100A200092680A449A60019B5B68019A12681A6096
:100A3000019B1B68019A52685A60019B0022DA6090
:100A4000024B4FF0FF325A6202B070474010002054
:100A500082B020230193019B83F3118802B0704779
:100A600082B000230193019B83F3118802B0704789
:100A700008B5FFF7EDFF08BDAFF30080AFF30080CE
:100A800008B5FFF7EDFF08BDAFF30080AFF30080BE
:100A900082B00190019B019A1A60019B019A5A60F1
:100AA00002B07047AFF30080AFF30080AFF3008077
:100AB00084B00190019B1B680393039B1A68019B00
:100AC0001A60019B1B68019A5A60039B184604B088
:100AD000704700BFAFF30080AFF30080AFF300803A
:100AE00082B00190019B5B68019A12681A60019BB9
:100AF0001B68019A52685A60019B184602B0704701
:100B0000064B1B689A68054B9B699B689A4294BF89
:100B100000230123DBB21846704700BF40100020BD
:100B200008B5FFF7A5FF08BDAFF30080AFF3008065
:100B300008B5FFF7A5FF08BDAFF30080AFF3008055
:100B400082B00190019BDB68002B0CBF00230123C6
:100B5000DBB2184602B07047AFF30080AFF30080FD
:100B600082B00190019B9B685A1C019B9A6002B065
:100B7000704700BFAFF30080AFF30080AFF3008099
:100B800008B50648FFF784FF044B00229A60034B28
:100B9000024A1A61014B014A5A6108BD4010002007
:100BA00084B00190019B00221A770E4B0393039BA4
:100BB0001B680393039B9A68019B9B689A42F6D239
:100BC000019B039A1A60039B5A68019B5A60019B20
:100BD0005B68019A1A60039B019A5A60019B184650
:100BE00004B0704740100020AFF30080AFF30080E6
:100BF00000B585B003468DF807300E4B9B69039313
:100C0000039B9DF807201A77039B0A22DA7709488D
:100C1000FFF74EFF0246074B9A61064B9B69012284
:100C20001A77044B9B6918460399FFF759FB05B0E7
:100C30005DF804FB40100020AFF30080AFF30080AC
:100C400000B585B00190019B0393FFF769FF039BFB
:100C50001B7F072B23D801A252F823F07D0C00083C
:100C60009F0C00089F0C0008830C0008970C0008DC
:100C70008D0C00089F0C0008970C0008FFF758FF28
:100C800017E0039B1B6A00221A6009E0039B1B6AA2
:100C90001846FFF765FF0398FFF722FF00E000BF4B
:100CA000039B4FF0FF321A620398FFF779FFFFF7BB
:100CB0003FFF05B05DF804FBAFF30080AFF30080A9
:100CC00000B589B0034600918DF80730009BB3F161
:100CD000FF3F19D0124B9B6903AA10460099114A95
:100CE000FFF756FE9DF807301846FFF781FF03AB6C
:100CF0001846FFF725FF0346002B04D003AB184628
:100D0000FFF786FE05E004E09DF807301846FFF780
:100D10006FFF034B9B691B6A184609B05DF804FB23
:100D200040100020410C0008AFF30080AFF30080BA
:100D300000B585B001900091019B009A1A62019B59
:100D40009A680E4B9B699B689A4203D80198FFF7FB
:100D500027FF0FE0094B9B691846FFF721FF03901F
:100D6000064B019A9A61019B01221A770198039917
:100D7000FFF7B6FA05B05DF804FB00BF4010002095
:100D800008B5FFF7BDFE0346002B01D000F050F878
:100D900008BD00BFAFF30080AFF30080AFF3008069
:100DA00082B00F4B1B689B6801930D4B9B699B683E
:100DB00000930B4B9B69DB7F002B07D0019A009BB4
:100DC0009A4294BF00230123DBB206E0019A009B04
:100DD0009A4234BF00230123DBB2184602B07047A9
:100DE00040100020AFF30080AFF30080AFF300802D
:100DF00000B583B00D4B9B6901930C48FFF758FE7B
:100E000002460A4B9A61094B9B6901221A77019BA2
:100E10000A22DA770198FFF7C3FE044B9B69184654
:100E20000199FFF75DFA03B05DF804FB4010002064
:100E300000B583B0184B9B6900931748FFF738FE45
:100E40000246154B9A61144B9B6901221A77009B4D
:100E500000221A77104B0193019B1B680193019BA1
:100E60009A68009B9B689A42F6D8009B019A1A6088
:100E7000019B5A68009B5A60009B5B68009A1A604D
:100E8000019B009A5A60044B9B6918460099FFF732
:100E900027FA03B05DF804FB40100020AFF3008098
:100EA00008B5054B9B69DB7F002B02D1FFF7A0FF44
:100EB00001E0FFF7BDFF08BD40100020AFF3008048
:100EC00082B020230193019B83F3118802B0704705
:100ED00082B000230193019B83F3118802B0704715
:100EE00082B00190019B019A1A6002B0704700BF66
:100EF00082B00190019B1A68019B9A420CBF0023AB
:100F00000123DBB2184602B0704700BFAFF3008088
:100F100082B00190019B019A1A60019B019A5A606C
:100F200002B07047AFF30080AFF30080AFF30080F2
:100F300082B00190019B1A68019B9A420CBF00236A
:100F40000123DBB2184602B0704700BFAFF3008048
:100F500082B001900091009B1A68019B1A60009B6F
:100F6000019A1A6002B07047AFF30080AFF30080BF
:100F700084B00190019B1B680393039B1A68019B3B
:100F80001A60039B184604B0704700BFAFF300809F
:100F900082B001900091019B009A1A60009B5A68F0
:100FA000019B5A60019B5B68019A1A60009B019A41
:100FB0005A6002B0704700BFAFF30080AFF300800B
:100FC00084B00190019B1B680393039B1A68019BEB
:100FD0001A60019B1B68019A5A60039B184604B073
:100FE000704700BFAFF30080AFF30080AFF3008025
:100FF000064B1B689A68054B9B699B689A4234BFF5
:1010000000230123DBB21846704700BF40100020C8
:1010100008B5FFF7EDFF0346002B01D0FFF7E8FE10
:1010200008BD00BFAFF30080AFF30080AFF30080D6
:1010300008B5FFF745FF08BDAFF30080AFF30080B0
:1010400008B5FFF745FF08BDAFF30080AFF30080A0
:10105000014B9B6A1846704740100020AFF3008098
:1010600084B0039002910192039A029BD21A0199D3
:10107000029BCB1A9A422CBF00230123DBB21846F5
:1010800004B07047AFF30080AFF30080AFF300808F
:10109000014B9B691846704740100020AFF3008059
:1010A00000B583B001900198FFF77AFD034618461A
:1010B00003B05DF804FB00BFAFF30080AFF3008026
:1010C00000B583B0019008200199FFF7F9FD03B046
:1010D0005DF804FBAFF30080AFF30080AFF3008056
:1010E00000B585B0019000910198FFF769FF03906A
:1010F000039B009A1A620398FFF752FD05B05DF852
:1011000004FB00BFAFF30080AFF30080AFF30080BB
:1011100000B583B001900091019B009A9A60019BF9
:1011200002221A77019B00225A77019B0A22DA7762
:10113000019B009ADA63019B00229A63019B0022C3
:101140005A63019B01229A77019B00229A61019BBD
:101150000D4A1A610C4B5A69019B5A61019B5B69EC
:10116000019A1A61084B019A5A61019B243318466F
:10117000FFF7B6FE019B28331846FFF7C9FE019B17
:10118000184603B05DF804FB40100020AFF3008068
:1011900000B587B00390029101920093039B0593E1
:1011A000029B243B039A1A44059BDA60059BDB688B
:1011B000009A1A60059BDB68089A5A60059BDB68F9
:1011C000054A1A6205980199FFF7A2FF03461846DF
:1011D00007B05DF804FB00BFF1020008AFF3008028
:1011E00000B589B00590049103920293FFF720FFA8
:1011F0000A9B009305980499039A029BFFF7C8FF86
:10120000079007980021FFF793FDFFF719FF079B51
:10121000184609B05DF804FBAFF30080AFF300801F
:1012200000B583B00190FFF703FF0198FFF738FF87
:101230000190FFF705FF019B184603B05DF804FB22
:1012400000B585B00190FFF7F3FE114B9B69DB6B96
:1012500003930F4B9B699A680D4B9B69DB6B9A421A
:1012600005D00B4B9B699A68019B9A4203D2084BAD
:101270009B69019A9A60064B9B69019ADA63FFF7B2
:101280007FFDFFF7DDFE039B184605B05DF804FB0C
:1012900040100020AFF30080AFF30080AFF3008078
:1012A00000B583B00190FFF7C3FE019B5B7F43F065
:1012B0000403DAB2019B5A77FFF7C2FE03B05DF870
:1012C00004FB00BFAFF30080AFF30080AFF30080FA
:1012D00000B583B00190FFF7ABFE0198FFF7F0FE79
:1012E000FFF7AEFE03B05DF804FB00BFAFF3008074
:1012F00000B583B00190FFF79BFEFFF7A9FE034600
:10130000019AD31A0193019B002B02D00198FFF799
:10131000D7FEFFF795FE03B05DF804FBAFF3008046
:1013200000B585B001900091FFF782FEFFF790FEB7
:10133000039003980199009AFFF792FE0346002B51
:1013400005D0009A039BD31A1846FFF7B9FEFFF7A2
:1013500077FE009B184605B05DF804FBAFF30080F4
:1013600008B5FFF765FEFFF753FEFFF769FE08BDFE
:1013700000B583B00190FFF75BFE019800F008F81C
:1013800003B05DF804FB00BFAFF30080AFF3008053
:1013900000B585B00190174B9B690393039B019A9D
:1013A0001A6208E0039B24331846FFF7E1FD034669
:1013B0001846FFF7F5FB039B24331846FFF798FD0B
:1013C0000346002BEED1039B5B7F03F00303002B4E
:1013D00009D1039B5B69039A12691A61039B1B691C
:1013E000039A52695A610F20FFF702FC05B05DF8BD
:1013F00004FB00BF40100020AFF30080AFF300807B
:1014000000B585B00190FFF713FE019B1B7F0F2BEA
:101410000AD00C4B9A69019B243310461946FFF7FA
:1014200097FD0920FFF7E4FB019B1B6A0393FFF77D
:1014300007FE019800F0C4F9039B184605B05DF85B
:1014400004FB00BF40100020AFF30080AFF300802A
:1014500000B585B00190FFF71BFE0390019B039A36
:101460001A60039B019A1A620320FFF7C1FBFFF782
:101470000FFE03461B6A184605B05DF804FB00BF6B
:1014800000B585B001900091FFF702FE0390009B2C
:10149000002B02D14FF0FF330AE0019B039A1A6040
:1014A000039B019A1A6203200099FFF709FC034687
:1014B000184605B05DF804FBAFF30080AFF3008081
:1014C00000B585B001900091019B1B68002B0BD0EB
:1014D000019B1B680393019B00221A60039B009AE7
:1014E0001A620398FFF75CFB05B05DF804FB00BFD0
:1014F00000B585B001900091019B1B68002B09D0BD
:10150000019B1B680393019B00221A6003980099BA
:10151000FFF70EFC05B05DF804FB00BFAFF30080E1
:1015200000B583B001900091FFF782FD019800990A
:10153000FFF7DEFFFFF784FD03B05DF804FB00BF9B
:1015400000B583B001900091009B002B02D14FF0B9
:10155000FF330AE0074B9B6918460199FFF718FD16
:1015600004200099FFF7ACFB0346184603B05DF872
:1015700004FB00BF40100020AFF30080AFF30080F9
:1015800000B583B0019000910198FFF7D1FC0346AC
:10159000002B03D001980099FFF7A2FD03B05DF87E
:1015A00004FB00BFAFF30080AFF30080AFF3008017
:1015B00000B583B00190009103E001980099FFF716
:1015C0008FFD0198FFF7B4FC0346002BF5D103B063
:1015D0005DF804FBAFF30080AFF30080AFF3008051
:1015E000014B5B6818467047001000E0AFF30080C5
:1015F00084B0039002910192039BDB685A1C039B09
:10160000DA60039B9B68029AD21A019BD21A039B51
:101610009A60039BD3E90401039B9B681A464FF031
:101620000003121843EB01030399C1E90423039B50
:101630009A68039B5B689A4203D9039B9A68039B51
:101640005A60039B9A68039B1B689A4203D2039BD0
:101650009A68039B1A6004B0704700BFAFF3008024
:1016600000B587B00A4B00225A676B46184600F057
:1016700017F86B46184600F02BF86B46184600F03A
:1016800037F8029A024B5A6707B05DF804FB00BFB7
:1016900040100020AFF30080AFF30080AFF3008074
:1016A00082B00190019B4FF0FF321A60019B002233
:1016B0005A60019B00229A60019B0022DA60019926
:1016C0004FF000024FF00003C1E9042302B070475D
:1016D00000B583B00190FFF783FF0246019B9A603B
:1016E00003B05DF804FB00BFAFF30080AFF30080F0
:1016F00000B583B00190FFF773FF0246044B5B6FA8
:10170000019811461A46FFF773FF03B05DF804FB1A
:1017100040100020AFF30080AFF30080AFF30080F3
:1017200000B583B001900091FFF75AFF0246009B7D
:101730009A60009B9B68019819460022FFF758FFAA
:1017400003B05DF804FB00BFAFF30080AFF300808F
:1017500082B020230193019B83F3118802B070476C
:1017600082B000230193019B83F3118802B070477C
:1017700008B5FFF7EDFF08BDAFF30080AFF30080C1
:1017800008B5FFF7EDFF08BDAFF30080AFF30080B1
:1017900000B583B00190FFF7EBFF019B9B7F013306
:1017A000DAB2019B9A77FFF7EBFF019B184603B073
:1017B0005DF804FBAFF30080AFF30080AFF300806F
:1017C00000B585B00190FFF7D3FF019B9B7F013BE4
:1017D000DAB2019B9A77019B9B7F8DF80F309DF8C1
:1017E0000F30002B2FD1019B1B7F0F2B2BD1019B87
:1017F0005B7F03F00303012B02D0022B10D022E009
:10180000019B5B69019A12691A61019B1B69019A2C
:1018100052695A61FFF7B4FF019802F019F814E019
:10182000019B5B69019A12691A61019B1B69019A0C
:1018300052695A61FFF7A4FF019B1B6C184601997E
:1018400002F03EF901E0FFF79BFF05B05DF804FBF5
:1018500000B589B00590049103920293059804990C
:1018600001F07EFF0790079B002B01D1002314E0BD
:10187000FFF77EFF0A9B009307980499039A029B47
:10188000FFF786FC0690069B01225A7706980021F6
:10189000FFF74EFAFFF774FF069B184609B05DF894
:1018A00004FB00BFAFF30080AFF30080AFF3008014
:1018B00000B589B00590049103920293059802F057
:1018C000DFF80790079B002B01D1002319E0FFF7F9
:1018D0004FFF059B5B68029A009207981946049A8D
:1018E000039BFFF755FC0690069B02225A77069B46
:1018F000059A1A6406980021FFF71AFAFFF740FFCD
:10190000069B184609B05DF804FB00BFAFF30080EA
:1019100082B020230193019B83F3118802B07047AA
:1019200082B000230193019B83F3118802B07047BA
:1019300008B5FFF7EDFF08BDAFF30080AFF30080FF
:1019400008B5FFF7EDFF08BDAFF30080AFF30080EF
:1019500000B583B0FFF7ECFF074B1B690193019BB8
:101960009B7F0133DAB2019B9A77FFF7E9FF019B76
:10197000184603B05DF804FB40100020AFF3008070
:1019800000B585B00190FFF7D3FF019B1B6903935E
:10199000039A0B4B9A4202D10023039305E0039B69
:1019A0009B7F0133DAB2039B9A77FFF7C9FF019857
:1019B000FFF706FF039B184605B05DF804FB00BF68
:1019C00040100020AFF30080AFF30080AFF3008041
:1019D00082B020230193019B83F3118802B07047EA
:1019E00082B000230193019B83F3118802B07047FA
:1019F00082B00190019B019A1A60019B019A5A6082
:101A000002B07047AFF30080AFF30080AFF3008007
:101A100082B001900091019B009A1A60009B5A6865
:101A2000019B5A60019B5B68019A1A60009B019AB6
:101A30005A6002B0704700BFAFF30080AFF3008080
:101A400084B00190019B1B680393039B1A68019B60
:101A50001A60019B1B68019A5A60039B184604B0E8
:101A6000704700BFAFF30080AFF30080AFF300809A
:101A700084B00190019B5B680393039B5A68019BB0
:101A80005A60019B5B68019A1A60039B184604B078
:101A9000704700BFAFF30080AFF30080AFF300806A
:101AA00008B5FFF795FF08BDAFF30080AFF30080E6
:101AB00008B5FFF795FF08BDAFF30080AFF30080D6
:101AC00000B583B001900091019B1846FFF790FF8D
:101AD000019B009A9A6003B05DF804FBAFF30080AD
:101AE00000B583B001900091FFF7DAFF01980099EB
:101AF00000F00EF8FFF744F9FFF7DAFF03B05DF8E6
:101B000004FB00BFAFF30080AFF30080AFF30080B1
:101B100000B585B001900091019B9B680393019BE8
:101B2000009A9A600BE0019B1846FFF7A1FF03465D
:101B30001846FFF735F803466FF001021A62039B5F
:101B400001330393039B002BEDDD05B05DF804FB2F
:101B500000B585B00190FFF7A3FF019800F008F8E9
:101B60000390FFF7A5FF039B184605B05DF804FB43
:101B700000B583B00190019B9B685A1E019B9A603F
:101B8000019B9B68002B11DA0B4B9B69019A1A622F
:101B9000094B9A69019B10461946FFF739FF05204A
:101BA000FFF726F8044B9B691B6A00E000231846E8
:101BB00003B05DF804FB00BF40100020AFF30080CD
:101BC00000B585B001900091FFF76AFF0198009978
:101BD00000F00EF80390FFF76BFF039B184605B06B
:101BE0005DF804FBAFF30080AFF30080AFF300803B
:101BF00000B583B001900091019B9B685A1E019B28
:101C00009A60019B9B68002B1BDA009B002B07D17D
:101C1000019B9B685A1C019B9A604FF0FF3311E0B7
:101C20000A4B9B69019A1A62084B9A69019B1046FC
:101C30001946FFF7EDFE05200099FFF741F803462E
:101C400000E00023184603B05DF804FB40100020BC
:101C500000B583B00190FFF723FF019B9B685A1CDE
:101C6000019B9A60019B9B68002B08DC019B184636
:101C7000FFF7E6FE034618460021FFF759F8FFF785
:101C800017FF03B05DF804FBAFF30080AFF30080F3
:101C900000B585B00190019B9B685A1C019B9A601E
:101CA000019B9B68002B0ADC019B1846FFF7C8FECE
:101CB0000390039B00221A620398FEF771FF05B0A0
:101CC0005DF804FBAFF30080AFF30080AFF300805A
:101CD00000B583B00190009116E0019B9B685A1CEF
:101CE000019B9A60019B9B68002B0ADC019B1846B4
:101CF000FFF7A6FE03461846FEF752FF03460022F2
:101D00001A62009B013B0093009B002BE5DC03B0B3
:101D10005DF804FBAFF30080AFF30080AFF3008009
:101D200000B585B001900091FFF7BAFE019B9B685A
:101D30005A1C019B9A60019B9B68002B0ADC019B4B
:101D40001846FFF77DFE03461846FEF729FF0346B7
:101D500000221A62009B9B685A1E009B9A60009B9F
:101D60009B68002B11DA0E4B9B690293009B029833
:101D70001946FFF74DFE029B009A1A620520FEF7F6
:101D800037FF029B1B6A039303E0FEF7F9FF002372
:101D90000393FFF78DFE039B184605B05DF804FB27
:101DA00040100020AFF30080AFF30080AFF300805D
:101DB00082B020230193019B83F3118802B0704706
:101DC00082B000230193019B83F3118802B0704716
:101DD00082B00190019B019A1A60019B019A5A609E
:101DE00002B07047AFF30080AFF30080AFF3008024
:101DF00082B00190019B1A68019B9A420CBF00239C
:101E00000123DBB2184602B0704700BFAFF3008079
:101E100084B001900091009B0393039B1B68039384
:101E2000039A009B9A4205D0039B9A68019B9B688A
:101E30009A42F2D2019B039A1A60039B5A68019B53
:101E40005A60019B5B68019A1A60039B019A5A6071
:101E500004B07047AFF30080AFF30080AFF30080B1
:101E600084B00190019B1B680393039B1A68019B3C
:101E70001A60019B1B68019A5A60039B184604B0C4
:101E8000704700BFAFF30080AFF30080AFF3008076
:101E900082B00190019B5B68019A12681A60019BF5
:101EA0001B68019A52685A60019B184602B070473D
:101EB00008B5FFF77DFF08BDAFF30080AFF30080EA
:101EC00008B5FFF77DFF08BDAFF30080AFF30080DA
:101ED00000B583B00190019B1846FFF789FF0346C8
:101EE000184603B05DF804FBAFF30080AFF3008049
:101EF00000B583B00190019B1846FFF769FF019B75
:101F000000229A6003B05DF804FB00BFAFF30080CD
:101F100000B583B00190FFF7CBFF019800F008F8FF
:101F2000FFF7CEFF03B05DF804FB00BFAFF3008006
:101F300000B585B001902D4B9B690293019B9B6876
:101F4000002B45D0019B9B6803932FE0029B9A686E
:101F5000039B9A60039B1B7F062B04D0072B11D099
:101F6000002B1AD021E00398FFF792FF0246039B53
:101F70001B6A10461946FFF74BFF039B1B6A9B68C1
:101F8000039313E00398FFF783FF0246039B1B6A4A
:101F900010461946FFF73CFF07E00398FFF778FF6C
:101FA00003461846FEF7FCFD00BF05E0039B9A6858
:101FB000029B9B689A42C9D3019B02981946FFF77E
:101FC00027FF029B019A1A620620FEF711FE09E024
:101FD000019B029A9A60029B9A6B019BDA60029BBA
:101FE000019A9A6305B05DF804FB00BF4010002021
:101FF00000B585B00190FFF75BFF019800F010F885
:1020000003468DF80F30FFF75BFF9DF80F30184641
:1020100005B05DF804FB00BFAFF30080AFF30080B4
:1020200082B00190019B9B68002B01D000230DE042
:10203000084B9A69019B9A60064B9B699A6B019BBE
:10204000DA60044B9B69019A9A630123184602B037
:10205000704700BF40100020AFF30080AFF3008056
:1020600000B587B00190264B9B690393FFF720FFD3
:10207000019BDA68039B9A630198FFF729FF0346E7
:10208000002B34D0039BDB6B0493039B9B6B05936A
:1020900012E00598FFF71CFF0346002B09D0059BB3
:1020A0001B689A68049B9A4203D9059B1B689B682E
:1020B0000493059BDB680593059B002BE9D1039BEB
:1020C000049A9A60019B1846FFF7CAFE0290019B92
:1020D000029A9A60029B9A6B019BDA60029B019ABA
:1020E0009A630298FEF75CFDFEF74AFE02E0019B50
:1020F00000229A60FFF7E4FE07B05DF804FB00BF22
:1021000040100020AFF30080AFF30080AFF30080F9
:1021100000B587B00190234B9B690393019BDA685C
:10212000039B9A630198FFF7D3FE0346002B32D03E
:10213000039BDB6B0493039B9B6B059312E0059859
:10214000FFF7C6FE0346002B09D0059B1B689A6863
:10215000049B9A4203D9059B1B689B680493059BCB
:10216000DB680593059B002BE9D1039B049A9A60D9
:10217000019B1846FFF774FE0290019B029A9A6039
:10218000029B9A6B019BDA60029B019A9A63029808
:10219000FEF706FD02E0019B00229A6007B05DF8A1
:1021A00004FB00BF40100020AFF30080AFF30080BD
:1021B00000B585B01D4B9B690393FFF779FE039B28
:1021C0009B6B002B2CD0039B9B6B0293029BDA68CA
:1021D000039B9A630298FFF77BFE0346002B12D005
:1021E000029B1846FFF73CFE0190029B019A9A6001
:1021F000019B9A6B029BDA60019B029A9A63019899
:10220000FEF7CEFC02E0029B00229A60039B9B6BD0
:10221000002BD8D1039BDA6B039B9A60FEF7B0FDCD
:10222000FFF74EFE05B05DF804FB00BF4010002034
:1022300082B020230193019B83F3118802B0704781
:1022400082B000230193019B83F3118802B0704791
:1022500082B00190019B019A1A60019B019A5A6019
:1022600002B07047AFF30080AFF30080AFF300809F
:1022700082B00190019B1A68019B9A420CBF002317
:102280000123DBB2184602B0704700BFAFF30080F5
:1022900084B001900091009B0393039B1B68039300
:1022A000039A009B9A4205D0039B9A68019B9B6806
:1022B0009A42F2D2019B039A1A60039B5A68019BCF
:1022C0005A60019B5B68019A1A60039B019A5A60ED
:1022D00004B07047AFF30080AFF30080AFF300802D
:1022E00084B00190019B1B680393039B1A68019BB8
:1022F0001A60019B1B68019A5A60039B184604B040
:10230000704700BFAFF30080AFF30080AFF30080F1
:1023100008B5FFF78DFF08BDAFF30080AFF3008075
:1023200008B5FFF78DFF08BDAFF30080AFF3008065
:10233000014B9B691846704740100020AFF30080A6
:1023400008B5FFF7F5FF03469B6B184608BD00BFB5
:1023500000B583B00190019B1846FFF779FF03B0E9
:102360005DF804FBAFF30080AFF30080AFF30080B3
:1023700000B583B00190FFF7CBFF019B1846FFF734
:1023800077FF0346002B08D0019B1846FFF7A8FFF4
:10239000034618460021FEF7CBFCFFF7C1FF03B050
:1023A0005DF804FBAFF30080AFF30080AFF3008073
:1023B00000B585B00190019B1846FFF759FF034611
:1023C000002B0AD0019B1846FFF78AFF0390039B5E
:1023D00000221A620398FEF7E3FB05B05DF804FBE8
:1023E00000B583B00190FFF793FF019800F008F863
:1023F000FEF7C6FCFFF794FF03B05DF804FB00BFD7
:1024000000B583B001900BE0019B1846FFF768FF11
:1024100003461846FEF7C4FB03466FF001021A623A
:10242000019B1846FFF724FF0346002BECD103B0B5
:102430005DF804FBAFF30080AFF30080AFF30080E2
:1024400000B585B00190FFF763FF019800F008F830
:102450000390FFF765FF039B184605B05DF804FB8A
:1024600000B587B001900F4B9B690593FFF768FF9C
:1024700004900498FFF74CFE059B019A1A62019B99
:1024800005981946FFF704FF0720FEF7B1FB059BEF
:102490001B6A03930498FFF74BFD039B184607B094
:1024A0005DF804FB40100020AFF30080AFF3008024
:1024B00000B585B001900091FFF72AFF01980099BF
:1024C00000F00EF80390FFF72BFF039B184605B0B2
:1024D0005DF804FBAFF30080AFF30080AFF3008042
:1024E00000B585B001900091FFF72AFF0390039893
:1024F000FFF70EFE0D4B9B69019A1A620B4B9A690E
:10250000019B10461946FFF7C3FE07200099FEF70E
:10251000D7FB0290029BB3F1FF3F02D00398FFF775
:1025200007FD029B184605B05DF804FB4010002033
:1025300082B020230193019B83F3118802B070477E
:1025400082B000230193019B83F3118802B070478E
:1025500008B5FFF7EDFF08BDAFF30080AFF30080D3
:1025600008B5FFF7EDFF08BDAFF30080AFF30080C3
:1025700000B585B00390029101920093FFF7E8FF48
:10258000039B1A68029B1A60039B029A1A60094B0C
:102590009A69029B5A60029B019A9A60029B0022F0
:1025A000DA60029B009A1A61FFF7DAFF05B05DF866
:1025B00004FB00BF40100020AFF30080AFF30080A9
:1025C00000B585B001900091019B0393FFF7C0FF18
:1025D0000CE0039B1A68009B9A4204D1009B1A6886
:1025E000039B1A6007E0039B1B680393039B1A6815
:1025F000019B9A42EDD1FFF7B3FF05B05DF804FBF4
:1026000000B585B00190FFF7A3FF0B4B9B695A6B98
:10261000019B13400393084B9B69074A9269516BD6
:10262000019AD2430A405A63FFF79AFF039B184668
:1026300005B05DF804FB00BF40100020AFF3008040
:1026400000B583B00190FFF783FF094B9B69084AEF
:102650009269516B019A0A435A63054B9B695B6B04
:102660000193FFF77DFF019B184603B05DF804FB63
:1026700040100020AFF30080AFF30080AFF3008084
:1026800000B585B001900091019B1B6803931AE08F
:10269000039BDA68009B1A43039BDA60009B002BC4
:1026A00006D0039BDA68039B1B691340002B07D0FD
:1026B000039B5A68039B9B681046194600F040F83C
:1026C000039B1B680393039A019B9A42E0D105B0D8
:1026D0005DF804FBAFF30080AFF30080AFF3008040
:1026E00000B585B00190FFF733FF019BDB680393D2
:1026F000019B0022DA60FFF733FF039B184605B009
:102700005DF804FBAFF30080AFF30080AFF300800F
:1027100000B583B001900091FFF71AFF019800996E
:1027200000F00EF8FEF72CFBFFF71AFF03B05DF880
:1027300004FB00BFAFF30080AFF30080AFF3008075
:1027400000B583B001900091019B5A6B009B1A4326
:10275000019B5A63019B1B7F0A2B06D1019B5A6B7D
:10276000019B1B6A1340002B0CD1019B1B7F0B2B81
:102770000ED1019B5A6B019B1B6A1A40019B1B6A7D
:102780009A4205D1019B00221A620198FEF708FACD
:1027900003B05DF804FB00BFAFF30080AFF300802F
:1027A00000B583B001900091FFF7D2FE0198009927
:1027B000FFF766FFFEF7E4FAFFF7D2FE03B05DF81D
:1027C00004FB00BFAFF30080AFF30080AFF30080E5
:1027D00084B00190019BDB680393019B0022DA60C7
:1027E000039B184604B07047AFF30080AFF300803E
:1027F00000B585B0019000910023039319E0009A81
:10280000039B22FA03F303F00103002B0ED00122F5
:10281000039B02FA03F3DB43009A13400093039BEC
:102820009B00019A13441B6803989847039B01334C
:102830000393009B002BE2D105B05DF804FB00BFC1
:1028400000B585B00190154B9B690293FFF780FEA0
:10285000029B5A6B019B13400393039B002B0AD1ED
:10286000029B019A1A620A20FEF7C2F9029B5A6B78
:10287000019B13400393039B5B42039A1340039312
:10288000029B5A6B039BDB431A40029B5A63FFF780
:1028900067FE039B184605B05DF804FB401000205E
:1028A00000B585B00190134B9B690293FFF750FE72
:1028B000029B5A6B019B13400393039B002B0AD18D
:1028C000029B019A1A620A20FEF792F9029B5A6B48
:1028D000019B13400393029B5A6B039BDB431A40FB
:1028E000029B5A63FFF73CFE039B184605B05DF858
:1028F00004FB00BF40100020AFF30080AFF3008066
:1029000000B585B00190104B9B690393FFF720FE43
:10291000039B5A6B019B1A40019B9A4205D0039B73
:10292000019A1A620B20FEF763F9039B5A6B019B15
:10293000DB431A40039B5A63FFF712FE019B1846C4
:1029400005B05DF804FB00BF40100020AFF300802D
:1029500000B585B0019000911C4B9B690293FFF775
:10296000F7FD029B5A6B019B13400393039B002BC3
:1029700019D1009B002B03D1FFF7F2FD002321E0CA
:10298000029B019A1A620A200099FEF799F9034600
:10299000002B03DAFFF7E4FD002313E0029B5A6BE0
:1029A000019B13400393039B5B42039A13400393E1
:1029B000029B5A6B039BDB431A40029B5A63FFF74F
:1029C000CFFD039B184605B05DF804FB40100020C6
:1029D00000B585B0019000911A4B9B690293FFF7F7
:1029E000B7FD029B5A6B019B13400393039B002B83
:1029F00019D1009B002B03D1FFF7B2FD00231CE08F
:102A0000029B019A1A620A200099FEF759F90346BF
:102A1000002B03DAFFF7A4FD00230EE0029B5A6BA4
:102A2000019B13400393029B5A6B039BDB431A40A9
:102A3000029B5A63FFF794FD039B184605B05DF8AF
:102A400004FB00BF40100020AFF30080AFF3008014
:102A500000B585B001900091174B9B690393FFF778
:102A600077FD039B5A6B019B1A40019B9A4214D03D
:102A7000009B002B03D1FFF773FD002317E0039B9E
:102A8000019A1A620B200099FEF71AF90346002BEF
:102A900003DAFFF765FD002309E0039B5A6B019BF6
:102AA000DB431A40039B5A63FFF75AFD019B18460C
:102AB00005B05DF804FB00BF40100020AFF30080BC
:102AC00082B020230193019B83F3118802B07047E9
:102AD00082B000230193019B83F3118802B07047F9
:102AE00082B001900091019B009A1A60009B5A6885
:102AF000019B5A60019B5B68019A1A60009B019AD6
:102B00005A6002B0704700BFAFF30080AFF300809F
:102B100084B00190019B1B680393039B1A68019B7F
:102B20001A60019B1B68019A5A60039B184604B007
:102B3000704700BFAFF30080AFF30080AFF30080B9
:102B400008B5FFF7BDFF08BDAFF30080AFF300800D
:102B500008B5FFF7BDFF08BDAFF30080AFF30080FD
:102B600082B00190019B9A6A019B28339A420CBF64
:102B700000230123DBB2184602B07047AFF3008098
:102B800000B583B00190009101980099FEF7D0F84C
:102B900003B05DF804FB00BFAFF30080AFF300802B
:102BA00000B585B001900091134B9B690393FFF72B
:102BB000C7FF039B009A1A63019B03F12802039B42
:102BC0001A62019B283303981946FFF789FF019B7E
:102BD0001B7F0E2B02D10198FDF7E2FF0C20FEF7C0
:102BE00007F8039B1B6A0093FFF7B2FF009B184690
:102BF00005B05DF804FB00BF40100020AFF300807B
:102C000000B583B0FFF79CFF0F4B9B691846FFF799
:102C1000A7FF034683F00103DBB2002B02D00E2096
:102C2000FDF7E6FF084B9B6928331846FFF770FF56
:102C30000190019B0D221A77FFF78AFF019B18462E
:102C400003B05DF804FB00BF40100020AFF300802C
:102C500000B583B001900091FFF772FF01980099D1
:102C6000FFF78EFFFFF774FF03B05DF804FB00BFB2
:102C700082B020230193019B83F3118802B0704737
:102C800082B000230193019B83F3118802B0704747
:102C900008B5FFF7EDFF08BDAFF30080AFF300808C
:102CA00008B5FFF7EDFF08BDAFF30080AFF300807C
:102CB00082B00190019B9B685A1E019B9A6002B0F2
:102CC000704700BFAFF30080AFF30080AFF3008028
:102CD00082B00190019B9B68184602B0704700BF0C
:102CE00000B585B0039002910192039B029A1A608D
:102CF000039B029ADA60039B029A9A60019B9B00F5
:102D0000029A1A44039B5A60039B1C33184601998C
:102D1000FEF7D6FE039B103318460021FEF7D0FEC7
:102D200005B05DF804FB00BFAFF30080AFF3008097
:102D300000B583B00190FFF7ABFF019800F008F8F1
:102D4000FEF71EF8FFF7ACFF03B05DF804FB00BF11
:102D500000B583B00190019B1A68019B9A60019BAA
:102D60001A68019BDA60019B03F11C02019B5B68FE
:102D70001946019B1B68CB1A9B1010461946FEF79B
:102D8000C7FE019B103318460021FEF7C1FE03B0B9
:102D90005DF804FBAFF30080AFF30080AFF3008079
:102DA00000B587B0039002910192FFF771FF03987D
:102DB0000299019A00F00CF80590FFF771FF059B4E
:102DC000184607B05DF804FBAFF30080AFF3008056
:102DD00000B587B0039002910192039B1C33184603
:102DE0000199FEF705FF0590059B002B17D1039B6A
:102DF0009B68191D039A9160029A1A60039B9A6856
:102E0000039B5B689A4203D3039B1A68039B9A60F7
:102E1000039B10331846FEF73BFFFDF7B1FF059B00
:102E2000184607B05DF804FBAFF30080AFF30080F5
:102E300000B583B001900091019B1C331846FFF749
:102E400047FF0346002B02DC4FF0FF331BE0019BE2
:102E50001C331846FFF72CFF019B9B68191D019A34
:102E60009160009A1A60019B9A68019B5B689A4284
:102E700003D3019B1A68019B9A60019B103318468B
:102E8000FEF706FF0023184603B05DF804FB00BF01
:102E900000B587B0039002910192FFF7F9FE039805
:102EA0000299019A00F00CF80590FFF7F9FE059BD6
:102EB000184607B05DF804FBAFF30080AFF3008065
:102EC00000B587B0039002910192039B1C33184612
:102ED0000199FEF78DFE0590059B002B1AD1039BEF
:102EE000DB681A1F039BDA60039BDA68039B1B688D
:102EF0009A4204D2039B5B681A1F039BDA60039B10
:102F0000DB68029A1A60039B10331846FEF7C0FE76
:102F1000FDF736FF059B184607B05DF804FB00BFC0
:102F200000B583B001900091019B1C331846FFF758
:102F3000CFFE0346002B02DC4FF0FF331EE0019B67
:102F40001C331846FFF7B4FE019BDB681A1F019B78
:102F5000DA60019BDA68019B1B689A4204D2019BEC
:102F60005B681A1F019BDA60019BDB68009A1A609C
:102F7000019B10331846FEF78BFE0023184603B062
:102F80005DF804FBAFF30080AFF30080AFF3008087
:102F900000B587B0039002910192FFF779FE039884
:102FA0000299019A00F00CF80590FFF779FE059B55
:102FB000184607B05DF804FBAFF30080AFF3008064
:102FC00000B587B0039002910192039B103318461D
:102FD0000199FEF70DFE0590059B002B18D1039B70
:102FE000DB68191D039AD1601A68029B1A60039B63
:102FF000DA68039B5B689A4203D3039B1A68039BBE
:10300000DA60039B1C331846FEF742FEFDF7B8FE5C
:10301000059B184607B05DF804FB00BFAFF30080C6
:1030200000B583B001900091019B10331846FFF763
:103030004FFE0346002B02DC4FF0FF331CE0019BE8
:1030400010331846FFF734FE019BDB68191D019A07
:10305000D1601A68009B1A60019BDA68019B5B686B
:103060009A4203D3019B1A68019BDA60019B1C33CF
:103070001846FEF70DFE0023184603B05DF804FB6A
:1030800082B020230193019B83F3118802B0704723
:1030900082B000230193019B83F3118802B0704733
:1030A00082B00190019B019A1A60019B019A5A60BB
:1030B00002B07047AFF30080AFF30080AFF3008041
:1030C00008B5FFF7DDFF08BDAFF30080AFF3008068
:1030D00008B5FFF7DDFF08BDAFF30080AFF3008058
:1030E00000B583B001900198FFF7DAFF03B05DF8F7
:1030F00004FB00BFAFF30080AFF30080AFF30080AC
:1031000082B00190019B9B68002B14BF0023012318
:10311000DBB2184602B07047AFF30080AFF3008017
:1031200082B00190019B5A69019B9B699A4205D12B
:10313000019B9B68002B01D0012300E0002303F0DA
:103140000103DBB2184602B0704700BFAFF3008046
:1031500082B00190019B5A69019B9B699A4205D1FB
:10316000019B9B68002B01D0012300E0002303F0AA
:103170000103DBB2184602B0704700BFAFF3008016
:1031800082B00190019B9B68002B14BF0023012398
:10319000DBB2184602B07047AFF30080AFF3008097
:1031A00000B585B00390029101920093039B1846ED
:1031B000FFF796FF039B00229A60039B029ADA6056
:1031C000039B029A9A61039B029A5A61029A019B9D
:1031D0001A44039B1A61039B009ADA61039B069AC7
:1031E0001A6205B05DF804FBAFF30080AFF3008016
:1031F00000B583B00190019BDA68019B9A61019B45
:10320000DA68019B5A61019B00229A60019B184673
:103210006FF00101FEF7CCF903B05DF804FB00BFCD
:1032200000B583B001900B468DF803300198FFF78D
:1032300077FF0346002B02D06FF003031CE0019BD5
:103240009B685A1C019B9A60019B5B69591C019AFF
:1032500051619DF803201A70019B5A69019B1B69FB
:103260009A4203D3019BDA68019B5A61019B18467D
:103270000021FEF785F90023184603B05DF804FB32
:1032800000B585B001900091FFF71AFF019BDB6943
:10329000002B04D0019BDB69019898470DE00CE0FE
:1032A000019B18460099FEF74BF90390039B002BF6
:1032B00003DAFFF70DFF039B20E00198FFF720FFE3
:1032C0000346002BECD1019B9B685A1E019B9A6020
:1032D000019B9B69591C019A91611B788DF80B30F9
:1032E000019B9A69019B1B699A4203D3019BDA688F
:1032F000019B9A61FFF7ECFE9DF80B30184605B074
:103300005DF804FBAFF30080AFF30080AFF3008003
:1033100000B587B00390029101920093039BDB6993
:10332000049300230593FFF7CBFE049B002B03D0EF
:10333000049B039898470CE00BE0039B1846009908
:10334000FEF7FEF80346002B03D0FFF7C1FE059BF6
:103350002EE00398FFF7D4FE0346002BEDD1039B2C
:103360009B685A1E039B9A60029B5A1C0292039A06
:103370009269501C0399886112781A70039B9A69AC
:10338000039B1B699A4203D3039BDA68039B9A61F0
:10339000FFF79EFE059B01330593019B013B0193C3
:1033A000019B002B01D1059B02E0FFF789FEBCE7E2
:1033B000184607B05DF804FBAFF30080AFF3008060
:1033C00000B585B00390029101920093039B1846CB
:1033D000FFF786FE039B019A9A60039B029ADA60CC
:1033E000039B029A9A61039B029A5A61029A019B7B
:1033F0001A44039B1A61039B009ADA61039B069AA5
:103400001A6205B05DF804FBAFF30080AFF30080F3
:1034100000B583B00190019BDA68019B9A61019B22
:10342000DA68019B5A61019B1B691A46019BDB68A4
:10343000D31A1A46019B9A60019B18466FF001014E
:10344000FEF7B6F803B05DF804FB00BFAFF30080F1
:1034500000B587B003900B4601928DF80B30FFF753
:103460002FFE0CE0039B18460199FEF769F80590C2
:10347000059B002B03DAFFF72BFE059B27E0039843
:10348000FFF77EFE0346002BECD1039B9B685A1E80
:10349000039B9A60039B5B69591C039A51619DF8D9
:1034A0000B201A70039B5A69039B1B699A4203D332
:1034B000039BDA68039B5A61039BDB69002B03D0F3
:1034C000039BDB6903989847FFF702FE0023184629
:1034D00007B05DF804FB00BFAFF30080AFF30080DE
:1034E00000B585B001900198FFF732FE0346002B2E
:1034F00002D06FF002031DE0019B9B685A1C019BE8
:103500009A60019B9B69591C019A91611B788DF807
:103510000F30019B9A69019B1B699A4203D3019B5F
:10352000DA68019B9A61019B18460021FEF728F892
:103530009DF80F30184605B05DF804FBAFF300802E
:1035400000B587B00390029101920093039BDB6961
:10355000049300230593FFF7B3FD0BE0039B18468C
:103560000099FDF7EDFF0346002B03D0FFF7B0FDF8
:10357000059B35E00398FFF703FE0346002BEDD1D2
:10358000039B9B685A1E039B9A60039B5B69591CB3
:10359000039A5161029A511C029112781A70039B8E
:1035A0005A69039B1B699A4203D3039BDA68039B06
:1035B0005A61049B002B02D0049B03989847FFF7A5
:1035C00087FD059B01330593019B013B0193019B03
:1035D000002B01D1059B03E0FFF772FD00BFC9E797
:1035E000184607B05DF804FBAFF30080AFF300802E
:1035F00082B020230193019B83F3118802B07047AE
:1036000082B000230193019B83F3118802B07047BD
:1036100008B5FFF7EDFF08BDAFF30080AFF3008002
:1036200008B5FFF7EDFF08BDAFF30080AFF30080F2
:10363000064B073323F007031A46054B1A60054B68
:1036400023F007031A46044B1A607047903A002093
:1036500008090020008001200C090020AFF3008041
:1036600000B585B00190FFF7D3FF019800F008F88E
:103670000390FFF7D5FF039B184605B05DF804FBE8
:1036800084B00190019B073323F0070301930C4B97
:103690001B681A460B4B1B68D31A1A46019B9A42A9
:1036A00001D2002309E0074B1B680393054B1A68FE
:1036B000019B1A44034B1A60039B184604B07047E1
:1036C0000C09002008090020AFF30080AFF3008050
:1036D000034B1B681A46034B1B68D31A18467047E6
:1036E0000C09002008090020AFF30080AFF3008030
:1036F00008B5064B064A1A60044B00229A60034B39
:103700000022DA600348FEF7F3FB08BD1009002031
:103710006136000820090020AFF30080AFF300807D
:1037200000B587B0039002910192029B0593039B21
:1037300000221A60039B059A9A60039B0022DA60BC
:10374000059B00221A60019BA3F10802059B5A60A9
:10375000039B10331846FEF7CBFB07B05DF804FB64
:1037600000B587B001900091019B002B01D1374B30
:103770000193009B073323F007030093019B083359
:103780000593019B10331846FEF7C2FB36E0059BFC
:103790001B680493049B5A68009B9A422CD3049B99
:1037A0005A68009B08339A4204D2049B1A68059B0E
:1037B0001A6016E0009B0833049A13440393049B99
:1037C0001A68039B1A60049B5A68009BD31AA3F1E2
:1037D0000802039B5A60059B039A1A60049B009A97
:1037E0005A60049B019A1A60019B10331846FEF739
:1037F00037FC049B083324E0049B0593059B1B685E
:10380000002BC4D1019B10331846FEF729FC019B05
:103810001B68002B14D0019B1B68009A08321046CD
:1038200098470490049B002B0AD0049B019A1A60CD
:10383000049B009A5A60049B08330493049B00E0A5
:103840000023184607B05DF804FB00BF10090020F4
:1038500000B587B00190019B083B0493049B1B6853
:103860000393039B08330593039B10331846FEF71D
:103870004FFB039B03F10802059B9A4203D0049A75
:10388000059B9A423ED9059B1B68002B04D0059BE3
:103890001A68049B9A4235D9059B1A68049B1A60E2
:1038A000059B049A1A60049B5B680833049A1A44C7
:1038B000049B1B689A420ED1049B5A68049B1B68A8
:1038C0005B68134403F10802049B5A60049B1B6865
:1038D0001A68049B1A60059B5B680833059A1A44B2
:1038E000049B9A420DD1059B5A68049B5B68134464
:1038F00003F10802059B5A60049B1A68059B1A6035
:1039000004E003E0059B1B680593B2E7039B1033BB
:103910001846FEF7A5FB00BF07B05DF804FB00BF2B
:1039200000B587B001900091019B002B01D1174B8E
:103930000193019B10331846FEF7EAFA0023039324
:1039400000230493019B083305930BE0059B1B6840
:103950005B68039A13440393049B01330493059B10
:103960001B680593059B1B68002BEFD1009B002B68
:1039700002D0009B039A1A60019B10331846FEF791
:103980006FFB049B184607B05DF804FB100900208C
:1039900082B020230193019B83F3118802B070470A
:1039A00082B000230193019B83F3118802B070471A
:1039B00008B5FFF7EDFF08BDAFF30080AFF300805F
:1039C00008B5FFF7EDFF08BDAFF30080AFF300804F
:1039D00000B583B0019000910198009900F070F853
:1039E00003B05DF804FB00BFAFF30080AFF30080CD
:1039F00084B0039002910192039B00221A60039B02
:103A0000029A5A60039B019A9A6004B0704700BF03
:103A100000B585B00390029101920BE003980299E2
:103A2000FFF7D6FF039B5B68029A13440293019B46
:103A3000013B0193019B002BF0D105B05DF804FB25
:103A400000B585B00190019B1B680393039B002B7D
:103A500005D0019B1B681A68019B1A600AE0019B54
:103A60009B68002B06D0019B9B68019A5268104608
:103A700098470390039B184605B05DF804FB00BF10
:103A800000B585B00190FFF793FF0198FFF7D8FFCD
:103A90000390FFF795FF039B184605B05DF804FB04
:103AA00084B001900091009B0393019B1A68039BD3
:103AB0001A60019B039A1A6004B07047AFF300804C
:103AC00000B583B001900091FFF772FF0198009953
:103AD000FFF7E6FFFFF774FF03B05DF804FB00BFDC
:103AE00082B020230193019B83F3118802B07047B9
:103AF00082B000230193019B83F3118802B07047C9
:103B000008B5FFF7EDFF08BDAFF30080AFF300800D
:103B100008B5FFF7EDFF08BDAFF30080AFF30080FD
:103B200010B582B0EFF309831C4623460193019B35
:103B300020330193019B0093009B83F30988FFF7D7
:103B4000E7FF02B010BD00BFAFF30080AFF300800D
:103B500010B582B0FFF7D4FF134B5B6803F400632A
:103B6000002B1DD0EFF309831C4623460193019BD4
:103B7000203B0193019B4FF08072DA61019B00931F
:103B8000009B83F30988FDF70BF90346002B03D054
:103B9000019B064A9A6105E0019B054A9A6101E092
:103BA000FFF7B6FF02B010BD00ED00E00103000812
:103BB00004030008AFF30080AFF30080AFF3008090
:103BC000704700BFAFF30080AFF30080AFF3008019
:103BD00008B5FFF7F5FF03F07BFA084804F040F85A
:103BE00002F006F901F06CFD02F05AFA02F048FE0C
:103BF00007F0C6F900F02CF808BD00BF806201088C
:103C000082B001904FF08043019A5A634FF0804395
:103C100000221A614FF080430222DA6002B070473E
:103C20004FF080430022DA60704700BFAFF300809E
:103C300082B001904FF08043019A5A6302B07047FE
:103C40004FF080435B6B1846704700BFAFF30080B6
:103C500008B503F0BDFF08BDAFF30080AFF30080EF
:103C600000B583B001900198FFF7CAFF03B05DF87B
:103C700004FB00BFAFF30080AFF30080AFF3008020
:103C800008B5FFF7CDFF08BDAFF30080AFF30080AC
:103C900000B583B001900198FFF7CAFF03B05DF84B
:103CA00004FB00BFAFF30080AFF30080AFF30080F0
:103CB00008B5FFF7C5FF0346184608BDAFF30080FF
:103CC00082B020230193019B83F3118802B07047D7
:103CD00082B000230193019B83F3118802B07047E7
:103CE00082B00190019B019A1A60019B019A5A606F
:103CF00002B07047AFF30080AFF30080AFF30080F5
:103D000008B5FFF7DDFF08BDAFF30080AFF300801B
:103D100008B5FFF7DDFF08BDAFF30080AFF300800B
:103D2000014B9B6A1846704740100020AFF300809B
:103D300000B583B001900198FFF7D2FF03B05DF8A2
:103D400004FB00BFAFF30080AFF30080AFF300804F
:103D500008B5FFF7D5FF08BDAFF30080AFF30080D3
:103D600008B5FFF7D5FF08BDAFF30080AFF30080C3
:103D700008B5FFF7D5FF0346184608BDAFF300802E
:103D800000B583B001900198FFF7D2FF03B05DF852
:103D900004FB00BFAFF30080AFF30080AFF30080FF
:103DA00000B583B00190009101980099FDF7C8FB20
:103DB0000346184603B05DF804FB00BFAFF3008074
:103DC00000B583B00190009101980099FDF7D8FBF0
:103DD00003B05DF804FB00BFAFF30080AFF30080D9
:103DE00000B583B00190009101980099FDF7E0FBC8
:103DF00003B05DF804FB00BFAFF30080AFF30080B9
:103E000000B585B00390029101920093039B184680
:103E1000FFF7B6FF039B00229A60039B029A1A6188
:103E2000039B029ADA60019B0433009A02FB03F3BE
:103E3000029A1A44039B5A61019B1A1D039B9A61C3
:103E4000039B009ADA61039B029A1A62039B002289
:103E50005A62039B00229A62039B069ADA62039BD2
:103E6000079A1A6305B05DF804FB00BFAFF300804A
:103E700000B583B00190019B00229A60019B1A6AF1
:103E8000019B1A61019B1A6A019BDA60019B002267
:103E90005A62019B00229A62019B18466FF0010151
:103EA000FFF79EFF03B05DF804FB00BFAFF3008097
:103EB00082B00190019BDA68019B1B699A4205D18F
:103EC000019B9B68002B01D0012300E0002303F03D
:103ED0000103DBB2002B01D0002302E0019BDB6871
:103EE0000433184602B07047AFF30080AFF3008090
:103EF00000B583B001900091019BDB68009A1A60C5
:103F0000019B9B685A1C019B9A60019BDA68019B8C
:103F10009B691A44019BDA60019BDA68019B5B692B
:103F20009A4203D3019B1A6A019BDA60019B1846EF
:103F30000021FFF745FF03B05DF804FBAFF30080FD
:103F400000B585B001900091FFF702FF019800993C
:103F500000F00EF80390FFF703FF039B184605B02F
:103F60005DF804FBAFF30080AFF30080AFF3008097
:103F700000B585B0019000910AE0019B18460099B8
:103F8000FFF70EFF0390039B002B01DA039B11E068
:103F9000019B9B68002BF0D0019B1B691A1D019BA4
:103FA0005A62019B5A6A019B1B691B681A44019B58
:103FB0009A620023184605B05DF804FBAFF3008059
:103FC00000B583B00190FFF7C3FE019800F008F838
:103FD000FFF7C6FE03B05DF804FB00BFAFF300803F
:103FE00000B583B00190019B9B685A1E019B9A60AB
:103FF000019B1A69019B9B691A44019B1A61019BF1
:104000001A69019B5B699A4203D3019B1A6A019B5F
:104010001A61019B00225A62019BDB6A002B03D0CC
:10402000019BDB6A0198984703B05DF804FB00BF71
:1040300000B585B001900091FFF78AFE019B5B6A95
:10404000002B0BD101980099FFF792FF0390039B7F
:10405000002B03D0FFF784FE039B14E0019B5B6AF7
:104060001B780393019B5B6A5A1C019B5A62019B5C
:104070005A6A019B9B6A9A4202D30198FFF7B0FFEC
:10408000FFF76EFE039B184605B05DF804FB00BF0A
:1040900000B58BB003900291019200930023099325
:1040A000FFF756FEFFF764FE0246009B134406939B
:1040B000039B5B6A002B26D1009BB3F1FF3F02D02C
:1040C000009B002B05D103980099FFF751FF079043
:1040D00012E0FFF74DFE0346069AD31A0593059AA0
:1040E000009B9A4203D9FFF73BFE099B5CE00398D3
:1040F0000599FFF73DFF0790079B002B03D0FFF7C3
:104100002FFE099B50E0039B9B6A1A46039B5B6A48
:10411000D31A0893019A099BD21A089B9A4203D298
:10412000019A099BD31A0893089B402B13D9039B30
:104130005B6A02981946402211F012FD029B40333F
:104140000293039B5B6A03F14002039B5A62099B43
:104150004033099314E0039B5B6A02981946089A5E
:1041600011F0FEFC029A089B13440293039B5A6AC7
:10417000089B1A44039B5A62099A089B13440993AB
:10418000039B5A6A039B9B6A9A4202D30398FFF7E8
:1041900027FFFFF7E5FD099A019B9A4201D3099B8E
:1041A00002E0FFF7D5FD83E718460BB05DF804FB8E
:1041B00000B585B00390029101920093039B1846CD
:1041C000FFF7DEFD039B009A9A60039B029A1A6137
:1041D000039B029ADA60019B0433009A02FB03F30B
:1041E000029A1A44039B5A61019B1A1D039B9A6110
:1041F000039B009ADA61039B029A1A62039B0022D6
:104200005A62039B00229A62039B069ADA62039B1E
:10421000079A1A6305B05DF804FB00BFAFF3008096
:1042200000B583B00190019BDA69019B9A60019B04
:104230001A6A019B1A61019B1A6A019BDA60019B51
:1042400000225A62019B00229A62019B18466FF07D
:104250000101FFF7C5FD03B05DF804FBAFF300807B
:1042600082B001900091019BDA68019B1B699A4220
:1042700005D1019B9B68002B01D0012300E00023A6
:1042800003F00103DBB2002B01D0002307E0019B08
:104290001B691A68009B1A60019B1B69043318464E
:1042A00002B07047AFF30080AFF30080AFF300803F
:1042B00000B583B00190019B9B685A1C019B9A60DA
:1042C000019B1A69019B9B691A44019B1A61019B1E
:1042D0001A69019B5B699A4203D3019B1A6A019B8D
:1042E0001A61019B18460021FFF76AFD03B05DF8D3
:1042F00004FB00BFAFF30080AFF30080AFF300809A
:1043000000B585B001900091FFF722FD019800995A
:1043100000F00EF80390FFF723FD039B184605B04D
:104320005DF804FBAFF30080AFF30080AFF30080D3
:1043300000B585B0019000910AE0019B18460099F4
:10434000FFF72EFD0390039B002B01DA039B10E087
:10435000019B9B68002BF0D0019BDB681A1D019B21
:104360005A62019BDA68019B9B691A44019B9A621D
:104370000023184605B05DF804FB00BFAFF30080D2
:1043800000B583B001900091FFF7E2FC019800991D
:1043900000F006F8FFF7E4FC03B05DF804FB00BF93
:1043A00000B583B001900091019BDB68009A1A6010
:1043B000019B9B685A1E019B9A60019BDA68019BD6
:1043C0009B691A44019BDA60019BDA68019B5B6977
:1043D0009A4203D3019B1A6A019BDA60019B002277
:1043E0005A62019BDB6A002B03D0019BDB6A0198B8
:1043F000984703B05DF804FBAFF30080AFF3008093
:1044000000B587B003900B4601928DF80B30FFF793
:104410009FFC039B5B6A002B0BD103980199FFF76C
:1044200087FF0590059B002B03D0FFF799FC059BA8
:1044300019E0039B5B6A9DF80B201A70039B5B6A73
:104440005A1C039B5A62039B5A6A039B9B6A9A42BB
:1044500006D3039B9B69043B03981946FFF7A0FF13
:10446000FFF77EFC0023184607B05DF804FB00BF91
:1044700000B58BB003900291019200930023099341
:10448000FFF766FCFFF774FC0246009B134406939B
:10449000039B5B6A002B26D1009BB3F1FF3F02D048
:1044A000009B002B05D103980099FFF741FF07906F
:1044B00012E0FFF75DFC0346069AD31A0593059AAE
:1044C000009B9A4203D9FFF74BFC099B60E00398DD
:1044D0000599FFF72DFF0790079B002B03D0FFF7EF
:1044E0003FFC099B54E0039B9B6A1A46039B5B6A53
:1044F000D31A0893019A099BD21A089B9A4203D2B5
:10450000019A099BD31A0893089B402B13D9039B4C
:104510005B6A18460299402211F022FB029B40334D
:104520000293039B5B6A03F14002039B5A62099B5F
:104530004033099314E0039B5B6A18460299089A7A
:1045400011F00EFB029A089B13440293039B5A6AD4
:10455000089B1A44039B5A62099A089B13440993C7
:10456000039B5A6A039B9B6A9A4206D3039B9B69EF
:10457000043B03981946FFF713FFFFF7F1FB099A75
:10458000019B9A4201D3099B02E0FFF7E1FB7FE721
:1045900018460BB05DF804FBAFF30080AFF300806A
:1045A00084B00190019BDA68019B1B699A4205D196
:1045B000019B9B68002B01D0012300E0002303F046
:1045C0000103DBB2002B2DD0019B5B6A002B29D0AD
:1045D000019B5B6A1A46019BDB68D31A043B039379
:1045E000039B002B1ED0019BDB68039A1A60019B82
:1045F0009B685A1E019B9A60019BDA68019B9B692C
:104600001A44019BDA60019BDA68019B5B699A425C
:1046100003D3019B1A6A019BDA60019B00225A6254
:10462000012300E00023184604B07047AFF3008078
:1046300000B585B00190FFF78BFB019B5B6A002BF7
:104640000ED0019B5B6A1A46019BDB68D31A043BC0
:104650000393039B002B03D001980399FFF7A0FE5F
:10466000FFF77EFB05B05DF804FB00BFAFF30080F1
:1046700088B0039002910192019B5B090793019B13
:1046800003F01F030693029B5B090593029B03F053
:104690001F030133012202FA03F3013B0493079A3B
:1046A000059B9A4214D2079B9B00039A13441A68F5
:1046B000069BDA40059B9B0003990B441968049BF9
:1046C0001940069BC3F1200301FA03F3134309E0E9
:1046D000079B9B00039A13441A68049B1A40069B8D
:1046E00022FA03F3184608B0704700BFAFF300800A
:1046F00000B587B0019001987F217E22FFF7B8FFB7
:104700000346002B04D0012B1ED000BF002323E062
:10471000019849213E22FFF7ABFF05900198312116
:104720002F22FFF7A5FF0490019853215022FFF795
:104730009FFF0390059B5A1C049B02339A40039BE6
:10474000093B02FA03F307E0019845213022FFF705
:104750008FFF034601339B02184607B05DF804FB48
:1047600082B00190019BD7331B781A06019BD63388
:104770001B781B041A44019BD5331B781B021A4477
:10478000019BD4331B781344184602B0704700BF16
:1047900000B585B001900091019B08330393039805
:1047A00007210122FFF764FF0346DAB2009B1A7566
:1047B000039813210C22FFF75BFF03469BB203F51E
:1047C000FA639AB2009B5A8203980B210822FFF7E2
:1047D0004FFF0346DAB2009B1A7403987F217822B8
:1047E000FFF746FF0346DAB2009B1A700398772161
:1047F0006822FFF73DFF03469AB2009B5A80039858
:1048000047214022FFF734FF0346DAB2009B1A72B9
:1048100003984F214822FFF72BFF0346DAB2009B93
:10482000DA71039857215022FFF722FF0346DAB2CC
:10483000009B9A7103985F215822FFF719FF0346E6
:10484000DAB2009B5A71039867216022FFF710FFCC
:104850000346DAB2009B1A7103983F213C22FFF70E
:1048600007FF0346DAB2009B5A7203983B213822B5
:10487000FFF7FEFE0346DAB2009B9A7203983721D7
:104880001822FFF7F5FE0246009BDA6005B05DF8DE
:1048900004FB00BFAFF30080AFF30080AFF30080F4
:1048A00000B585B001900091019B083303930398F4
:1048B00007210122FFF7DCFE0346DAB2009B1A75DE
:1048C00003980B210822FFF7D3FE03469BB203F2A5
:1048D000CD739AB2009B5A8203980F210C22FFF7E6
:1048E000C7FE0346DAB2009B1A7403987F21782230
:1048F000FFF7BEFE0346DAB2009B1A7003987721D9
:104900006822FFF7B5FE03469AB2009B5A800398CF
:104910003F213822FFF7ACFE0346DAB2009B5A7201
:10492000039847214022FFF7A3FE0346DAB2009B1B
:104930001A7203984F214822FFF79AFE0346DAB213
:10494000009BDA71039857215022FFF791FE03462E
:10495000DAB2009B9A7103985F215822FFF788FE14
:104960000346DAB2009B5A71039867216022FFF771
:104970007FFE0346DAB2009B1A7103983721342276
:10498000FFF776FE0346DAB2009B9A720398332152
:104990003022FFF76DFE0346DAB2009BDA7203980D
:1049A0002F211022FFF764FE0246009BDA6005B05B
:1049B0005DF804FBAFF30080AFF30080AFF300803D
:1049C00000B585B001900091019B183303930398C3
:1049D00049213E22FFF74CFE03469AB2009BDA8142
:1049E000039831212F22FFF743FE0346DAB2009BE2
:1049F0001A7503985F215422FFF73AFE03469AB2D4
:104A0000009BDA8003980E210E22FFF731FE034649
:104A1000DAB2009BDA77039807210122FFF728FE1C
:104A20000346DAB2009B83F8242003987F217E227C
:104A3000FFF71EFE0346DAB2009B1A7003984C2162
:104A40004C22FFF715FE0346DAB2009B1A73039857
:104A500009210822FFF70CFE0346DAB2009B83F817
:104A60002320039829212522FFF702FE0346DAB20C
:104A7000009B9A7503982E212A22FFF7F9FD034621
:104A8000DAB2009B5A7503980B210A22FFF7F0FD5A
:104A90000346DAB2009B83F8222003980F210F22ED
:104AA000FFF7E6FD0346DAB2009B9A7703986F2181
:104AB0006822FFF7DDFD0346DAB2009BDA70039847
:104AC0000D210D22FFF7D4FD0346DAB2009B83F8D7
:104AD000202003981C211A22FFF7CAFD0346DAB2F0
:104AE000009B9A76039853215022FFF7C1FD03469D
:104AF000DAB2009B1A7203984F214F22FFF7B8FDDC
:104B00000346DAB2009B5A7203984D214D22FFF7FB
:104B1000AFFD0346DAB2009BDA7203987D217A2258
:104B2000FFF7A6FD0346DAB2009B5A70039877217F
:104B30007022FFF79DFD0346DAB2009B9A7003983E
:104B40000C210C22FFF794FD0346DAB2009B83F898
:104B50002120039867216022FFF78AFD0346DAB21D
:104B6000009B1A7103983A213822FFF781FD034612
:104B7000DAB2009B5A7403983D213B22FFF778FD7F
:104B80000346DAB2009B1A74039834213222FFF7ED
:104B90006FFD0346DAB2009BDA74039837213522A1
:104BA000FFF766FD0346DAB2009B9A7403981F2153
:104BB0001F22FFF75DFD0346DAB2009B1A760398C9
:104BC00024212022FFF754FD0346DAB2009BDA7558
:104BD000039819211622FFF74BFD0346DAB2009B1A
:104BE000DA76039815211522FFF742FD0346DAB263
:104BF000009B1A7703984E214E22FFF739FD03469A
:104C0000DAB2009B9A7205B05DF804FBAFF3008046
:104C100000B585B001900091019B18330393039870
:104C200049213E22FFF724FD03469AB2009B9A8158
:104C3000039831212F22FFF71BFD0346DAB2009BB8
:104C40009A7403985F215422FFF712FD03469AB22B
:104C5000009B9A8003980E210E22FFF709FD034660
:104C6000DAB2009BDA76039807210122FFF700FDF4
:104C70000346DAB2009BDA7703987F217E22FFF7A2
:104C8000F7FC0346DAB2009B1A7003984C214C22C1
:104C9000FFF7EEFC0346DAB2009B9A7203982E21CE
:104CA0002E22FFF7E5FC0346DAB2009BDA74039884
:104CB0002D212722FFF7DCFC0346DAB2009B1A7590
:104CC00003980B210A22FFF7D3FC0346DAB2009BBC
:104CD0009A7703980F210F22FFF7CAFC0346DAB236
:104CE000009B9A7603986F216822FFF7C1FC034668
:104CF000DAB2009B9A7003980D210D22FFF7B8FCE1
:104D00000346DAB2009B1A7703981C211A22FFF798
:104D1000AFFC0346DAB2009BDA75039853215022A8
:104D2000FFF7A6FC0346DAB2009B9A7103984F2165
:104D30004F22FFF79DFC0346DAB2009BDA7103981D
:104D40004D214D22FFF794FC0346DAB2009B5A72C4
:104D5000039877217022FFF78BFC0346DAB2009BA1
:104D60005A7003980C210C22FFF782FC0346DAB23A
:104D7000009B5A77039867216022FFF779FC03466E
:104D8000DAB2009BDA7003981F211F22FFF770FC34
:104D90000346DAB2009B9A75039826212022FFF77A
:104DA00067FC0346DAB2009B5A75039819210C225E
:104DB000FFF75EFC0346DAB2009B1A7603981521D2
:104DC0001522FFF755FC0346DAB2009B5A7603988A
:104DD0004E214E22FFF74CFC0346DAB2009B1A72BA
:104DE00005B05DF804FB00BFAFF30080AFF30080B7
:104DF00000B585B001900091019B1833039303988F
:104E000045213022FFF734FC0246009BDA6003980C
:104E100007210122FFF72CFC0346DAB2009B1A7728
:104E200003985F215422FFF723FC03469AB2009BAC
:104E30009A8003980E210E22FFF71AFC0346DAB27D
:104E4000009B1A7603987F217E22FFF711FC034610
:104E5000DAB2009B1A7003984C214C22FFF708FC31
:104E60000346DAB2009B9A7203982E212E22FFF796
:104E7000FFFB0346DAB2009B1A7403980B210A2247
:104E8000FFF7F6FB0346DAB2009BDA7603980F21B0
:104E90000F22FFF7EDFB0346DAB2009BDA750398A9
:104EA0006F216822FFF7E4FB0346DAB2009B9A7099
:104EB00003980D210D22FFF7DBFB0346DAB2009BBE
:104EC0005A7603981C211A22FFF7D2FB0346DAB266
:104ED000009B1A75039853215022FFF7C9FB034624
:104EE000DAB2009B9A7103984F214F22FFF7C0FB63
:104EF0000346DAB2009BDA7103984D214D22FFF789
:104F0000B7FB0346DAB2009B5A7203982D21272281
:104F1000FFF7AEFB0346DAB2009B5A740398772181
:104F20007022FFF7A5FB0346DAB2009B5A70039884
:104F30000C210C22FFF79CFB0346DAB2009B9A7609
:104F4000039867216022FFF793FB0346DAB2009BC8
:104F5000DA7003981F211F22FFF78AFB0346DAB29B
:104F6000009BDA74039826212022FFF781FB034679
:104F7000DAB2009B9A74039819210C22FFF778FB90
:104F80000346DAB2009B5A75039815211522FFF7E4
:104F90006FFB0346DAB2009B9A7503984E214E22AE
:104FA000FFF766FB0346DAB2009B1A7205B05DF8A4
:104FB00004FB00BFAFF30080AFF30080AFF30080CD
:104FC00082B00190019B1B681A69019B9B68DA40C3
:104FD000019B5B681340184602B07047AFF3008036
:104FE00082B001900091019B1B68009AD143019A05
:104FF00052681140019A926810329140019A5068AB
:10500000009A1040019A926800FA02F20A439A61EB
:1050100002B07047AFF30080AFF30080AFF30080C1
:1050200000B583B001900091019B1A68019B5968FB
:10503000019B9B6801FA03F310461946009A02F09F
:105040005FFE03B05DF804FBAFF30080AFF30080B8
:1050500082B020230193019B83F3118802B0704733
:1050600082B000230193019B83F3118802B0704743
:1050700008B5FFF7EDFF08BDAFF30080AFF3008088
:1050800008B5FFF7EDFF08BDAFF30080AFF3008078
:1050900008B5FFF7EDFF08BDAFF30080AFF3008068
:1050A00008B5FFF7EDFF08BDAFF30080AFF3008058
:1050B00000B583B001900198FCF70AF903B05DF8E0
:1050C00004FB00BFAFF30080AFF30080AFF30080BC
:1050D00000B585B0019003AB019808214FF4D5725B
:1050E00004F03EFE034683F00103DBB2002B1AD02E
:1050F000019B01221A63039B1B0A03F00F03012B80
:1051000001D001232AE003AB01983721002204F0EB
:1051100027FE0346002B04D1039A124B1340002BA9
:105120001BD001231AE003AB01983721002204F0C1
:1051300017FE0346002B04D1039A0A4B1340002BA1
:1051400003D0019B02221A6307E0019B00221A632D
:1051500001980021002204F0A3FD0023184605B0A9
:105160005DF804FB08E0FFFDAFF30080AFF30080C3
:1051700000B587B00190184B04930023059303AB4F
:1051800001980121049A04F0ABFD0346002B01D0E5
:1051900001231CE0039B002B0CDA039B03F08043EC
:1051A000002B06D0019B1B6B43F01002019B1A637E
:1051B0000CE00BE0059B01330593059B632B01D9A4
:1051C000012304E00A20FFF773FFD8E70023184605
:1051D00007B05DF804FB00BF0080FFC0AFF30080A4
:1051E00000B587B00190019B1B6B03F00F03012BEF
:1051F00002D1214B049301E0204B0493002305933B
:1052000003AB01983721002204F0AAFD0346002BCE
:1052100004D1039A1A4B1340002B01D0012327E03D
:1052200003AB01982921049A04F05AFD0346002B90
:1052300001D001231CE0039B002B0CDA039B03F03D
:105240008043002B06D0019B1B6B43F01002019B97
:105250001A630CE00BE0059B01330593059B632B60
:1052600001D9012304E00A20FFF722FFC8E7002349
:10527000184607B05DF804FB000010C00000108065
:1052800008E0FFFDAFF30080AFF30080AFF30080D4
:1052900084B002910192009303468DF80F309DF87F
:1052A0000F301A06029B1B041A43019B1B021A4370
:1052B000009B1343184604B0704700BFAFF3008053
:1052C00084B00B46009202468DF807208DF8063018
:1052D0006FF07F4303939DF806309B000F2202FA84
:1052E00003F3DB43039A134003939DF806309B00BE
:1052F000009A02FA03F3039A134303939DF80730CD
:10530000DA07039B1343184604B07047AFF30080DD
:1053100084B0034600918DF807309DF807201346AE
:10532000DB079B1A5B000C330393009A039B134427
:105330001B781B029AB2039B013300990B441B7824
:1053400013439BB29BB2184604B07047AFF3008082
:1053500084B0034600918DF80730009B0E331B7814
:105360001A04009B0F331B781B021A43009B103357
:105370001B78134303939DF807309B00039A22FA8E
:1053800003F303F00F030293029B0F2B01D00023C2
:1053900000E00123184604B0704700BFAFF300805F
:1053A000F0B589B002AF7860396069460E46402199
:1053B0007961796901393961796908464FF00001ED
:1053C000CD0045EA5075C400796908464FF00001E8
:1053D000CB0043EA5073C2007B690733DB08DB0074
:1053E000ADEB030D02AB0033FB603B6800221A708B
:1053F0007B68183318467F217E22FFF739F9034670
:10540000002B04D13B6800221A7000233EE0FB68A9
:1054100000220092786819467A69062304F030FD6C
:105420000346002B01D0012330E0FB680020194621
:10543000FFF76EFF034603F00203002B25D0012087
:1054400000210122FFF73CFFB860FB68BA680092B8
:10545000786819467A69062304F012FD0346002B8A
:1054600001D0012312E0FB6800201946FFF770FF0E
:10547000034683F00103DBB2002B03D03B6801221B
:105480001A7002E03B6800221A700023B5461846E5
:105490001C37BD46F0BD00BFAFF30080AFF3008006
:1054A00000B587B001900091019BDB6A1B680593F2
:1054B000009B00221A70059B002B01D100231BE0EA
:1054C0000320B92101220023FFF7E2FE049003AB81
:1054D00001980621049A04F043FC034683F001037B
:1054E000DBB2002B07D0039A054B1340002B02D1EF
:1054F000009B01221A700023184607B05DF804FBD8
:1055000008E0FFFDAFF30080AFF30080AFF3008051
:1055100000B583B001900091019B1B6B03F00F035A
:10552000022B05D101980099FFF7BAFF034604E06A
:1055300001980099FFF734FF0346184603B05DF861
:1055400004FB00BFAFF30080AFF30080AFF3008037
:1055500000B585B00190019BDB6A1B79002B01D15E
:1055600000232CE0019BDB6A1B79012B24D10198DD
:10557000012104F06DFB019B9A6B03AB019837216D
:1055800004F0EEFB0346002B04D1039A0E4B1340AC
:10559000002B01D0012312E003AB01980621022267
:1055A00004F0DEFB0346002B04D1039A064B1340A4
:1055B000002B03D0012302E0012300E00023184662
:1055C00005B05DF804FB00BF08E0FFFDAFF300800D
:1055D00000B585B001900320B72100220023FFF71A
:1055E00057FE0390019BDB6A1B79012B06D0022B2F
:1055F0000CD0002B00D011E0002327E00320B721BE
:1056000001220023FFF744FE039007E00320B721A7
:1056100002220023FFF73CFE039000BF019BDB6AE0
:105620001B790198194604F013FB02AB019806217F
:10563000039A04F095FB0346002B04D1029A054B14
:105640001340002B01D0012300E00023184605B0D1
:105650005DF804FB08E0FFFDAFF30080AFF30080CE
:1056600000B585B00190019B9A6B03AB01980D21A9
:1056700004F076FB0346002B04D1039A0D4B134034
:10568000002B01D0012311E0039B5B0A03F00F0301
:10569000042B04D0042B08D3072B06D801E00023E9
:1056A00004E00120FFF704FDDDE70123184605B003
:1056B0005DF804FB08E0FFFDAFF30080AFF300806E
:1056C00008B504F0F5F908BDAFF30080AFF3008032
:1056D00082B00190019B084A1A60019B01221A7155
:1056E000019B00225A63019B0022DA62019B002287
:1056F0009A6202B0704700BFA0600108AFF300805B
:1057000000B583B001900091FFF7C2FC019B009AA5
:10571000DA62019804F0E4F9019B02221A71FFF7A2
:10572000BFFC03B05DF804FBAFF30080AFF3008073
:1057300000B583B00190FFF7ABFC019804F018FAB4
:10574000019B01221A71FFF7ABFC03B05DF804FB6B
:1057500000B589B0039000238DF81730039B032216
:105760001A71039804F034FA03980021002204F01F
:1057700097FA0398FFF7ACFC0346002B00D0BAE081
:10578000039B1B6B03F00F03022B06D10398FFF75B
:10579000EFFC0346002B07D0ADE00398FFF720FD98
:1057A0000346002B00D0A6E0039B08330398022198
:1057B000002204F015FB0346002B00D09BE0039B66
:1057C000383303980321002204F0CAFA0346002B61
:1057D00000D090E0039B9A6B039B18330398092138
:1057E00004F0FEFA0346002B00D084E0039B9A6B82
:1057F00006AB0398072104F0B3FA0346002B00D050
:1058000079E00DF1170303981946FFF781FE03466F
:10581000002B00D06FE09DF817300398194604F074
:10582000F7F9039B1B6B03F00F03022B2ED1039B95
:10583000183318467F217E22FEF71AFF0346012BFC
:105840001BD9039BDB6A1B680793079B002B00D1C6
:1058500051E000230093039807994FF40072082346
:1058600004F00EFB0346002B00D044E00798FEF73F
:1058700077FF0246039B9A6210E0039B1833184699
:10588000FEF736FF0246039B9A6207E0039B18333C
:105890001846FEF72DFF0246039B9A6206AB03985B
:1058A00010214FF4007204F05BFA0346002B22D162
:1058B000069A164B1340002B1DD1039B1B6B03F064
:1058C0000F03012B02D9022B08D014E00398FFF735
:1058D0003FFE0346002B00D00DE007E00398FFF7E2
:1058E00077FE0346002B00D005E000BF039B052296
:1058F0001A71002306E0039804F09AF9039B022230
:105900001A710123184609B05DF804FB08E0FFFD99
:1059100000B583B00190FFF7BBFB019B1B79022B05
:1059200003D1FFF7BDFB002319E0019B04221A718C
:10593000FFF7B6FB0198FFF793FE0346002B07D055
:10594000019804F075F9019B02221A71012306E007
:10595000019804F06DF9019B02221A710023184688
:1059600003B05DF804FB00BFAFF30080AFF300802D
:1059700000B587B00390029101920093029A009BB8
:1059800013445A1E039B9B6A9A4207D9039B5B6B85
:1059900043F08002039B5A63012310E0039B06221D
:1059A0001A7103980299019A009B04F0B9FB03460F
:1059B0008DF81730039B05221A719DF81730184691
:1059C00007B05DF804FB00BFAFF30080AFF30080C9
:1059D00000B587B00390029101920093029A009B58
:1059E00013445A1E039B9B6A9A4207D9039B5B6B25
:1059F00043F08002039B5A63012310E0039B0722BC
:105A00001A7103980299019A009B04F0D1FB034696
:105A10008DF81730039B05221A719DF81730184630
:105A200007B05DF804FB00BFAFF30080AFF3008068
:105A300000B585B00190FFF72BFB019B5B6B0393D7
:105A4000019B00225A63FFF72BFB039B184605B00E
:105A50005DF804FBAFF30080AFF30080AFF300808C
:105A600000B585B00190019B1B79052B01D0012366
:105A70000DE0019B08221A71019804F0E1FB034636
:105A80008DF80F30019B05221A719DF80F301846D2
:105A900005B05DF804FB00BFAFF30080AFF30080FA
:105AA00082B001900091019B1B79052B01D001234D
:105AB00008E0019B9A6A009B5A60009B4FF40072B9
:105AC0001A600023184602B0704700BFAFF3008091
:105AD00000B587B0039002910192039B07221A71CF
